{
  "_format": "hh-sol-artifact-1",
  "contractName": "WavePortal",
  "sourceName": "contracts/WavePortal.sol",
  "abi": [
    {
      "inputs": [],
      "stateMutability": "payable",
      "type": "constructor"
    },
    {
      "anonymous": false,
      "inputs": [
        {
          "indexed": true,
          "internalType": "address",
          "name": "from",
          "type": "address"
        },
        {
          "indexed": false,
          "internalType": "uint256",
          "name": "timestamp",
          "type": "uint256"
        },
        {
          "indexed": false,
          "internalType": "string",
          "name": "firstAnswer",
          "type": "string"
        },
        {
          "indexed": false,
          "internalType": "string",
          "name": "secondAnswer",
          "type": "string"
        },
        {
          "indexed": false,
          "internalType": "uint256",
          "name": "winProbability",
          "type": "uint256"
        }
      ],
      "name": "NewWave",
      "type": "event"
    },
    {
      "inputs": [],
      "name": "getAllWaves",
      "outputs": [
        {
          "components": [
            {
              "internalType": "address",
              "name": "waver",
              "type": "address"
            },
            {
              "internalType": "uint256",
              "name": "timestamp",
              "type": "uint256"
            },
            {
              "internalType": "string",
              "name": "firstAnswer",
              "type": "string"
            },
            {
              "internalType": "string",
              "name": "secondAnswer",
              "type": "string"
            }
          ],
          "internalType": "struct WavePortal.Wave[]",
          "name": "",
          "type": "tuple[]"
        }
      ],
      "stateMutability": "view",
      "type": "function"
    },
    {
      "inputs": [],
      "name": "getTotalWaves",
      "outputs": [
        {
          "internalType": "uint256",
          "name": "",
          "type": "uint256"
        }
      ],
      "stateMutability": "view",
      "type": "function"
    },
    {
      "inputs": [
        {
          "internalType": "address",
          "name": "",
          "type": "address"
        }
      ],
      "name": "lastWavedAt",
      "outputs": [
        {
          "internalType": "uint256",
          "name": "",
          "type": "uint256"
        }
      ],
      "stateMutability": "view",
      "type": "function"
    },
    {
      "inputs": [
        {
          "internalType": "uint256",
          "name": "",
          "type": "uint256"
        }
      ],
      "name": "quizAnswers",
      "outputs": [
        {
          "internalType": "string",
          "name": "",
          "type": "string"
        }
      ],
      "stateMutability": "view",
      "type": "function"
    },
    {
      "inputs": [
        {
          "internalType": "string",
          "name": "_firstAnswer",
          "type": "string"
        },
        {
          "internalType": "string",
          "name": "_secondAnswer",
          "type": "string"
        }
      ],
      "name": "wave",
      "outputs": [],
      "stateMutability": "nonpayable",
      "type": "function"
    }
  ],
  "bytecode": "0x60806040526200004f6040518060400160405280602081526020017f48657265206973206d7920666972737420736d61727420636f6e7472616374218152506200013660201b620009ca1760201c565b606444426200005f919062000333565b6200006b919062000406565b6001819055506040518060400160405280600481526020017f4348414900000000000000000000000000000000000000000000000000000000815250600460008081526020019081526020016000209080519060200190620000cf92919062000202565b506040518060400160405280600981526020017f7368696674626173650000000000000000000000000000000000000000000000815250600460006001815260200190815260200160002090805190602001906200012f92919062000202565b50620004dc565b620001d6816040516024016200014d9190620002f3565b6040516020818303038152906040527f41304fac000000000000000000000000000000000000000000000000000000007bffffffffffffffffffffffffffffffffffffffffffffffffffffffff19166020820180517bffffffffffffffffffffffffffffffffffffffffffffffffffffffff8381831617835250505050620001d960201b60201c565b50565b60008151905060006a636f6e736f6c652e6c6f679050602083016000808483855afa5050505050565b8280546200021090620003d0565b90600052602060002090601f01602090048101928262000234576000855562000280565b82601f106200024f57805160ff191683800117855562000280565b8280016001018555821562000280579182015b828111156200027f57825182559160200191906001019062000262565b5b5090506200028f919062000293565b5090565b5b80821115620002ae57600081600090555060010162000294565b5090565b6000620002bf8262000317565b620002cb818562000322565b9350620002dd8185602086016200039a565b620002e881620004cb565b840191505092915050565b600060208201905081810360008301526200030f8184620002b2565b905092915050565b600081519050919050565b600082825260208201905092915050565b6000620003408262000390565b91506200034d8362000390565b9250827fffffffffffffffffffffffffffffffffffffffffffffffffffffffffffffffff038211156200038557620003846200043e565b5b828201905092915050565b6000819050919050565b60005b83811015620003ba5780820151818401526020810190506200039d565b83811115620003ca576000848401525b50505050565b60006002820490506001821680620003e957607f821691505b602082108114156200040057620003ff6200049c565b5b50919050565b6000620004138262000390565b9150620004208362000390565b9250826200043357620004326200046d565b5b828206905092915050565b7f4e487b7100000000000000000000000000000000000000000000000000000000600052601160045260246000fd5b7f4e487b7100000000000000000000000000000000000000000000000000000000600052601260045260246000fd5b7f4e487b7100000000000000000000000000000000000000000000000000000000600052602260045260246000fd5b6000601f19601f8301169050919050565b61176780620004ec6000396000f3fe608060405234801561001057600080fd5b50600436106100575760003560e01c8063518729591461005c5780638f701753146100785780639a2cdc08146100a8578063a42a4663146100c6578063bd43a908146100f6575b600080fd5b61007660048036038101906100719190610e2e565b610114565b005b610092600480360381019061008d9190610e9a565b6106e4565b60405161009f919061114c565b60405180910390f35b6100b0610784565b6040516100bd9190611268565b60405180910390f35b6100e060048036038101906100db9190610e05565b6107cf565b6040516100ed9190611268565b60405180910390f35b6100fe6107e7565b60405161010b919061112a565b60405180910390f35b42600360003373ffffffffffffffffffffffffffffffffffffffff1673ffffffffffffffffffffffffffffffffffffffff16815260200190815260200160002081905550600160008082825461016a91906113a8565b925050819055506101956040518060600160405280602b8152602001611707602b9139338484610a63565b600260405180608001604052803373ffffffffffffffffffffffffffffffffffffffff16815260200142815260200184815260200183815250908060018154018082558091505060019003906000526020600020906004020160009091909190915060008201518160000160006101000a81548173ffffffffffffffffffffffffffffffffffffffff021916908373ffffffffffffffffffffffffffffffffffffffff160217905550602082015181600101556040820151816002019080519060200190610264929190610cd0565b506060820151816003019080519060200190610281929190610cd0565b5050506064600154424461029591906113a8565b61029f91906113a8565b6102a99190611539565b6001819055506102f06040518060400160405280601681526020017f52616e646f6d20232067656e6572617465643a20256400000000000000000000815250600154610b05565b6000610397600460008081526020019081526020016000208054610313906114d6565b80601f016020809104026020016040519081016040528092919081815260200182805461033f906114d6565b801561038c5780601f106103615761010080835404028352916020019161038c565b820191906000526020600020905b81548152906001019060200180831161036f57829003601f168201915b505050505084610ba1565b156103ac576001816103a991906113a8565b90505b610452600460006001815260200190815260200160002080546103ce906114d6565b80601f01602080910402602001604051908101604052809291908181526020018280546103fa906114d6565b80156104475780601f1061041c57610100808354040283529160200191610447565b820191906000526020600020905b81548152906001019060200180831161042a57829003601f168201915b505050505083610ba1565b156104675760018161046491906113a8565b90505b600060288261047691906113fe565b601461048291906113a8565b90506104c36040518060400160405280601281526020017f77696e50726f626162696c6974793a202564000000000000000000000000000081525082610b05565b806001541161060c5761050b6040518060400160405280600781526020017f257320776f6e210000000000000000000000000000000000000000000000000081525033610c0b565b6000655af3107a4000905047811115610559576040517f08c379a000000000000000000000000000000000000000000000000000000000815260040161055090611228565b60405180910390fd5b60003373ffffffffffffffffffffffffffffffffffffffff168260405161057f90611115565b60006040518083038185875af1925050503d80600081146105bc576040519150601f19603f3d011682016040523d82523d6000602084013e6105c1565b606091505b5050905080610605576040517f08c379a00000000000000000000000000000000000000000000000000000000081526004016105fc90611248565b60405180910390fd5b505061064c565b61064b6040518060400160405280600f81526020017f257320646964206e6f742077696e2e000000000000000000000000000000000081525033610c0b565b5b3373ffffffffffffffffffffffffffffffffffffffff167f5edd519b3e28e4f61452477205920c50471c0d5292453644a33d8279fa839f56428686856040516106989493929190611283565b60405180910390a26106de6040518060400160405280600a81526020017f2d2d2d2d2d2d2d2d2d2d000000000000000000000000000000000000000000008152506109ca565b50505050565b60046020528060005260406000206000915090508054610703906114d6565b80601f016020809104026020016040519081016040528092919081815260200182805461072f906114d6565b801561077c5780601f106107515761010080835404028352916020019161077c565b820191906000526020600020905b81548152906001019060200180831161075f57829003601f168201915b505050505081565b60006107c76040518060400160405280601881526020017f5765206861766520256420746f74616c20776176657321210000000000000000815250600054610b05565b600054905090565b60036020528060005260406000206000915090505481565b60606002805480602002602001604051908101604052809291908181526020016000905b828210156109c157838290600052602060002090600402016040518060800160405290816000820160009054906101000a900473ffffffffffffffffffffffffffffffffffffffff1673ffffffffffffffffffffffffffffffffffffffff1673ffffffffffffffffffffffffffffffffffffffff1681526020016001820154815260200160028201805461089e906114d6565b80601f01602080910402602001604051908101604052809291908181526020018280546108ca906114d6565b80156109175780601f106108ec57610100808354040283529160200191610917565b820191906000526020600020905b8154815290600101906020018083116108fa57829003601f168201915b50505050508152602001600382018054610930906114d6565b80601f016020809104026020016040519081016040528092919081815260200182805461095c906114d6565b80156109a95780601f1061097e576101008083540402835291602001916109a9565b820191906000526020600020905b81548152906001019060200180831161098c57829003601f168201915b5050505050815250508152602001906001019061080b565b50505050905090565b610a60816040516024016109de919061114c565b6040516020818303038152906040527f41304fac000000000000000000000000000000000000000000000000000000007bffffffffffffffffffffffffffffffffffffffffffffffffffffffff19166020820180517bffffffffffffffffffffffffffffffffffffffffffffffffffffffff8381831617835250505050610ca7565b50565b610aff84848484604051602401610a7d949392919061119e565b6040516020818303038152906040527f245986f2000000000000000000000000000000000000000000000000000000007bffffffffffffffffffffffffffffffffffffffffffffffffffffffff19166020820180517bffffffffffffffffffffffffffffffffffffffffffffffffffffffff8381831617835250505050610ca7565b50505050565b610b9d8282604051602401610b1b9291906111f8565b6040516020818303038152906040527f9710a9d0000000000000000000000000000000000000000000000000000000007bffffffffffffffffffffffffffffffffffffffffffffffffffffffff19166020820180517bffffffffffffffffffffffffffffffffffffffffffffffffffffffff8381831617835250505050610ca7565b5050565b600081604051602001610bb491906110fe565b6040516020818303038152906040528051906020012083604051602001610bdb91906110fe565b604051602081830303815290604052805190602001201415610c005760019050610c05565b600090505b92915050565b610ca38282604051602401610c2192919061116e565b6040516020818303038152906040527f319af333000000000000000000000000000000000000000000000000000000007bffffffffffffffffffffffffffffffffffffffffffffffffffffffff19166020820180517bffffffffffffffffffffffffffffffffffffffffffffffffffffffff8381831617835250505050610ca7565b5050565b60008151905060006a636f6e736f6c652e6c6f679050602083016000808483855afa5050505050565b828054610cdc906114d6565b90600052602060002090601f016020900481019282610cfe5760008555610d45565b82601f10610d1757805160ff1916838001178555610d45565b82800160010185558215610d45579182015b82811115610d44578251825591602001919060010190610d29565b5b509050610d529190610d56565b5090565b5b80821115610d6f576000816000905550600101610d57565b5090565b6000610d86610d81846112fb565b6112d6565b905082815260208101848484011115610d9e57600080fd5b610da9848285611494565b509392505050565b600081359050610dc0816116d8565b92915050565b600082601f830112610dd757600080fd5b8135610de7848260208601610d73565b91505092915050565b600081359050610dff816116ef565b92915050565b600060208284031215610e1757600080fd5b6000610e2584828501610db1565b91505092915050565b60008060408385031215610e4157600080fd5b600083013567ffffffffffffffff811115610e5b57600080fd5b610e6785828601610dc6565b925050602083013567ffffffffffffffff811115610e8457600080fd5b610e9085828601610dc6565b9150509250929050565b600060208284031215610eac57600080fd5b6000610eba84828501610df0565b91505092915050565b6000610ecf8383611076565b905092915050565b610ee081611458565b82525050565b610eef81611458565b82525050565b6000610f008261133c565b610f0a818561135f565b935083602082028501610f1c8561132c565b8060005b85811015610f585784840389528151610f398582610ec3565b9450610f4483611352565b925060208a01995050600181019050610f20565b50829750879550505050505092915050565b6000610f7582611347565b610f7f818561137b565b9350610f8f8185602086016114a3565b610f9881611626565b840191505092915050565b6000610fae82611347565b610fb8818561138c565b9350610fc88185602086016114a3565b610fd181611626565b840191505092915050565b6000610fe782611347565b610ff1818561139d565b93506110018185602086016114a3565b80840191505092915050565b600061101a60348361138c565b915061102582611637565b604082019050919050565b600061103d60278361138c565b915061104882611686565b604082019050919050565b6000611060600083611370565b915061106b826116d5565b600082019050919050565b600060808301600083015161108e6000860182610ed7565b5060208301516110a160208601826110e0565b50604083015184820360408601526110b98282610f6a565b915050606083015184820360608601526110d38282610f6a565b9150508091505092915050565b6110e98161148a565b82525050565b6110f88161148a565b82525050565b600061110a8284610fdc565b915081905092915050565b600061112082611053565b9150819050919050565b600060208201905081810360008301526111448184610ef5565b905092915050565b600060208201905081810360008301526111668184610fa3565b905092915050565b600060408201905081810360008301526111888185610fa3565b90506111976020830184610ee6565b9392505050565b600060808201905081810360008301526111b88187610fa3565b90506111c76020830186610ee6565b81810360408301526111d98185610fa3565b905081810360608301526111ed8184610fa3565b905095945050505050565b600060408201905081810360008301526112128185610fa3565b905061122160208301846110ef565b9392505050565b600060208201905081810360008301526112418161100d565b9050919050565b6000602082019050818103600083015261126181611030565b9050919050565b600060208201905061127d60008301846110ef565b92915050565b600060808201905061129860008301876110ef565b81810360208301526112aa8186610fa3565b905081810360408301526112be8185610fa3565b90506112cd60608301846110ef565b95945050505050565b60006112e06112f1565b90506112ec8282611508565b919050565b6000604051905090565b600067ffffffffffffffff821115611316576113156115f7565b5b61131f82611626565b9050602081019050919050565b6000819050602082019050919050565b600081519050919050565b600081519050919050565b6000602082019050919050565b600082825260208201905092915050565b600081905092915050565b600082825260208201905092915050565b600082825260208201905092915050565b600081905092915050565b60006113b38261148a565b91506113be8361148a565b9250827fffffffffffffffffffffffffffffffffffffffffffffffffffffffffffffffff038211156113f3576113f261156a565b5b828201905092915050565b60006114098261148a565b91506114148361148a565b9250817fffffffffffffffffffffffffffffffffffffffffffffffffffffffffffffffff048311821515161561144d5761144c61156a565b5b828202905092915050565b60006114638261146a565b9050919050565b600073ffffffffffffffffffffffffffffffffffffffff82169050919050565b6000819050919050565b82818337600083830152505050565b60005b838110156114c15780820151818401526020810190506114a6565b838111156114d0576000848401525b50505050565b600060028204905060018216806114ee57607f821691505b60208210811415611502576115016115c8565b5b50919050565b61151182611626565b810181811067ffffffffffffffff821117156115305761152f6115f7565b5b80604052505050565b60006115448261148a565b915061154f8361148a565b92508261155f5761155e611599565b5b828206905092915050565b7f4e487b7100000000000000000000000000000000000000000000000000000000600052601160045260246000fd5b7f4e487b7100000000000000000000000000000000000000000000000000000000600052601260045260246000fd5b7f4e487b7100000000000000000000000000000000000000000000000000000000600052602260045260246000fd5b7f4e487b7100000000000000000000000000000000000000000000000000000000600052604160045260246000fd5b6000601f19601f8301169050919050565b7f547279696e6720746f207769746864726177206d6f7265206d6f6e657920746860008201527f616e2074686520636f6e7472616374206861732e000000000000000000000000602082015250565b7f4661696c656420746f207769746864726177206d6f6e65792066726f6d20636f60008201527f6e74726163742e00000000000000000000000000000000000000000000000000602082015250565b50565b6116e181611458565b81146116ec57600080fd5b50565b6116f88161148a565b811461170357600080fd5b5056fe257320776176656420772f206669727374416e737765722025732c207365636f6e64416e73776572202573a264697066735822122030eaae6f3935b63a9166bdd14dd7015b4c7f33320562a426270e566aec214fd564736f6c63430008040033",
  "linkReferences": {},
  "deployedLinkReferences": {}
}